:030000000208DC17
:0C08DC00787FE4F6D8FD75810902080061
:100800007508087509001208E87F041208CF8005F2
:10081000EF64106007E5F35410FF80F4AFF5EF7557
:10082000F004A4AEF0ADF47C002DF509EC3EF50823
:10083000D3E50994AEE5089401401FD3E50994FE81
:10084000E508940150141208FCC287D3E50994ED21
:10085000E50894014073C286806FD3E50994FEE5F4
:10086000089401401FD3E509946CE50894025014E4
:100870001208FCC286D3E5099426E5089402404993
:10088000C2858045D3E509946CE5089402401FD3E6
:10089000E50994A3E508940250141208FCC285D31C
:1008A000E509948AE5089402401FC284801BD3E5C1
:1008B0000994A3E50894024010D3E50994EEE508F5
:0F08C000940250051208FCC28453F3EF0208099A
:0B08E8001208FC7F101208F302090048
:0D08CF0053F3F8EF42F343F32043F3082204
:0908F3008FF675F320E4F5F22202
:03090000C2AF2261
:0408FC004380F02223
:00000001FF
